:020000041000EA
:1000000000B5324B212058609868022188439860DF
:10001000D860186158612E4B002199600221596106
:100020000121F02299502B49196001219960352056
:1000300000F044F80222904214D00621196600F024
:1000400034F8196E01211966002018661A6600F04E
:100050002CF8196E196E196E052000F02FF8012189
:100060000842F9D1002199601B49196000215960AB
:100070001A491B48016001219960EB211966A021F2
:10008000196600F012F800219960164914480160C1
:100090000121996001BC002800D000471248134993
:1000A000086003C880F30888084703B5996A0420EC
:1000B0000142FBD001200142F8D103BD02B5186610
:1000C0001866FFF7F2FF186E186E02BD00000240BE
:1000D000000000180000070000035F00212200005C
:1000E000F4000018222000A00001001008ED00E03C
:1000F00000000000000000000000000074B24E7A12
:1001000000200420F7010010C3010010C5010010F9
:10011000C1010010C1010010C1010010C101001097
:10012000C1010010C1010010C1010010C701001081
:10013000C1010010C1010010C9010010CB01001065
:10014000CD010010CD010010CD010010CD01001037
:10015000CD010010CD010010CD010010CD01001027
:10016000CD010010CD010010CD010010CD01001017
:10017000CD010010CD010010CD010010CD01001007
:10018000CD010010CD010010CD010010CD010010F7
:10019000CD010010CD010010CD010010CD010010E7
:1001A000CD010010CD010010CD010010CD010010D7
:1001B000CD010010CD010010CD010010CD010010C7
:1001C00000BE00BE00BE00BE00BE00BE00F04BF888
:1001D000103800BEF2EB8871DC260510F8260510F9
:1001E0003402001090A31AE700202149086006C8D5
:1001F00081F3088810471F48006800282FD10DA4FC
:100200000ECC002902D000F012F8F9E71A491B4A77
:10021000002000E001C19142FCD1194988471949E9
:1002200088471949884700BEFDE701C901C29A42C3
:10023000FBD37047F8260510C0000020F81E0020F0
:100240003045051000000420000004203045051052
:1002500000100420001004200000000070470B482C
:1002600003F0ECFE0047EFF30580C0B270470000DA
:1002700008ED00E0000000D0F81E0020AC3A00209D
:10028000C124001085080010E92500105756000011
:1002900006005250ABB36053E063041006005250A6
:1002A000861C0302F0630410060052505422A29DE3
:1002B000FC63041005005250DE65F46830450510FB
:1002C000F8B5C04610B5064C2378002B07D1054B76
:1002D000002B02D0044800E000BF0123237010BDB2
:1002E000F82100200000000048600410044B10B505
:1002F000002B03D00349044800E000BF10BDC046F6
:1003000000000000FC210020486004100800704735
:10031000F0B54E464546DE465746E0B560C9D5B015
:1003200010AB03900E93002D00D173E220960F2E98
:1003300000D9A0E1012E00D08EE22B780AAA137614
:1003400020AC10AB00250F9632A89D5517F058FF32
:10035000D94B0022A364B823E5500433E5520023AF
:10036000D64E5092519352925393B368F2682093B1
:10037000049207930C3B1A6804990993A150656095
:100380001B680021E018029317F0DCFE336900219E
:10039000A36008930C3B0A931B681800029322ABDE
:1003A0009C46736960440360059317F0CBFE736845
:1003B0002AA80293B3690693029B069A0C3B0B93FF
:1003C0001B68E2500293BE4B20932833A364BC4BBE
:1003D00025611433A360BB4B6561E360A561E561F2
:1003E0002562656206F05AF9B74BE5620E9DE3603F
:1003F0002EAB0F9E2363002D00D112E21A960F2E12
:1004000000D9F7E1012E00D020E238232A78E25407
:100410002EAB002566639D5518230022216BE362F5
:1004200023A8002322F0B8FB23A932A817F08AFEE4
:1004300014AB9B4616AB14935B465D601D72E36D77
:10044000002B00D0FCE11AAB9A46A04B55469946CA
:100450001CAB2B60002308216B602B72280022F05C
:1004600089FF23680C3B1B68E318DF6F002F00D166
:10047000FCE13B7F002B00D12AE14D23FE5C4E23A3
:10048000FB5C9A460DAF00222100380017F0D8FF20
:100490003B78002B4DD00827029616E023680C3BD2
:1004A0001B68E318986F836846689E4200D372E128
:1004B000013B1E78964200D06DE18360187860455C
:1004C00000D173E1013F002F32D023680C3B1B6841
:1004D000E318986F8368C268934200D34CE119789F
:1004E000013383604B461B689C468B4200D14DE133
:1004F000029BCAB29A4200D1CDE05245CED16B6880
:100500001CAA1E00013398462B68934200D168E173
:10051000AA68904500D94EE13200514699544346AD
:10052000424600216B602B68013F9954002FCCD1CB
:10053000029E002304219C466B680027002B00D0FC
:10054000F7E023680C3B186820184369194317F03B
:10055000ABFD28681CAB984203D0AB68591C04F073
:10056000ADFD5B465B6816AA98465E1C5B461B6841
:10057000934200D129E15A469268964200D9CDE0D3
:1005800042469F545B4600225E601B689A55E36DAD
:10059000002B00D15CE7039A5B4610005B68AA461B
:1005A00008305D1E149E10609D4200D91D00002E73
:1005B00000D141E11A950F2D00D836E1039F0022AA
:1005C0005146380022F0E4FD1A9A3860BA602A00D9
:1005D000310004F05DFD039B1A9D1868039B5D606C
:1005E00000234355149816AB984204D05B46996893
:1005F000013104F063FD324B206B20932833A36458
:100600002F4B1433A360304BE3602EAB984203D0E2
:10061000A36B591C04F052FD2A4B2AA8E36005F095
:1006200027FA60210B9B069A1B6832A8E250089BB0
:100630000AAAA3600A9B52181B680599D150079B10
:10064000049A2093099B1B68E250002363601A4BB5
:10065000A36417F013FE0E9810AB984203D01099C4
:10066000013104F02BFD039855B0F0BCBB46B246F7
:10067000A946A046F0BD20AC002221000EA822F021
:1006800087FD209B0E9010933200290004F000FD9E
:10069000209E0E9B56E66B681CAA1E0001339846EE
:1006A0002B68934200D19EE0AA68904500D98EE065
:1006B0003200029932E7C046B0870410F49104106A
:1006C00028920410EC920410309104106C13002056
:1006D00038000BF055FA3B68674A9B693026934215
:1006E00000D082E023680C3B1B68E318DF6F002F0B
:1006F00000D1BBE03B7F002B00D0C0E638000BF000
:100700003FFA31223B6892469B695B4A934200D193
:10071000B8E63121380098478246B3E6012300222B
:10072000009341460023584622F0AEFD5B461B680D
:1007300026E72868072B00D908230121884651465F
:100740000200824600270800013B00E00B00117800
:10075000B14205D0884200D085E0414699400F4320
:100760000132591E002BF1D163465046FFB2002BD7
:1007700000D1EFE66146E4E603689B6A98474B4682
:100780001B6801009C468B4200D0B1E60223062183
:100790009C46029ED0E6FF2319400368DB6A984717
:1007A0004B461B689C46604500D08BE60423042121
:1007B0009C46029EC0E601230022009331000023E4
:1007C000280022F061FD2B68A6E60F22D5E6012362
:1007D0000022009331000023280022F055FD2B68F1
:1007E00066E70F2295E60F225FE730213800984731
:1007F000060077E71AAB190000222CA822F0C8FCEB
:100800001A9B2063A3633200290004F041FC1A9E66
:10081000236BFEE520AC002E00D193E5174817F0BE
:1008200067FB002E00D1F4E5F8E7012D20D1039AF3
:10083000337810681372D1E6002D00D1CEE6EDE7D3
:10084000039B0025180008301860C7E62EAB002E69
:1008500000D1DEE51800D6E710AB20AC002E00D1A9
:1008600070E5180010E7064817F05AFB17F030FB48
:10087000002D00D1B2E6AAE60D0300104860041076
:1008800074600410F0B5DE464E4645465746962144
:10089000E0B58901EBB0744801F0A2FD022104200B
:1008A00000F0A2FE0221052000F09EFEB42064AB01
:1008B00020226293002302A94000091863938B54FD
:1008C00046AB9B46684C08AD32AE38210AAB2B6074
:1008D000002310AA0E9202AA5218137016AA1831F9
:1008E000149202AA521813701CAA18311A9202AA62
:1008F0005218137022AA1831209202AA52181370AB
:1009000028AA1831269202AA521813702EAA18315A
:100910002C9202AA5218137034AA32603AAA3031CB
:10092000389202AA5218137040AA18313E9202AAB5
:1009300052182B72337213706B600F9315931B93C5
:10094000219327932D93736039933F9310331900AC
:10095000A2691140134250D038983AAB984204D063
:100960003A9B591C039304F0A9FB306834AB9842BE
:1009700003D0B368591C04F0A1FB2C982EAB98420D
:1009800004D02E9B591C039304F098FB269828ABA7
:10099000984204D0289B591C039304F08FFB2098A5
:1009A00022AB984204D0229B591C039304F086FB8F
:1009B0001A981CAB984204D01C9B591C039304F05A
:1009C0007DFB149816AB984204D0169B591C0393D8
:1009D00004F074FB0E9810AB984204D0109B591C85
:1009E000039304F06BFB28680AAB984200D16CE7D4
:1009F000AB68591C04F062FB67E71800A26910405D
:100A00008246134201D000F06EFD10270AAAA369A6
:100A10001F42FCD12368DBB2984601235344994618
:100A20000AAB9A421DD0AB6899450FD85346414650
:100A3000D1544B4649466B6000232A685354A3693E
:100A40001F4213D16B682A689A46E0E7012300220F
:100A5000009351460023280022F016FC52462B68D2
:100A6000E5E70F23E0E7C046004003405A466B68C5
:100A7000296898464492082B01D9082290460029FB
:100A800001D100F0CEFC5A46424491460E9F012B04
:100A900000D1C3E3002B03D04246584604F0F8FAD5
:100AA00043464A46459300231370449B5B4500D15F
:100AB000C3E310AA974201D100F0E2FC0E93459BDC
:100AC000109A03930F93469B1093002F01D100F0CF
:100AD000DDFC44974692002345933B70449858456B
:100AE00004D0469B591C039304F0E8FA0E9B9846E9
:100AF00036F034FD0368994636F030FD00230222BB
:100B0000036004A940463AF0EDFF049B07009845B6
:100B100001D100F041FD36F021FD0368222B01D107
:100B200000F03DFD36F01AFD0368002B00D1BBE359
:100B30006B685C97072B01D800F034FD2A6858AF2A
:100B4000083B914698465697382B01D93822904653
:100B5000424650920F2B00D995E3012B00D057E36A
:100B60004B46AC211B7A02AA49005218137001238C
:100B70003A00984643464146579300235354569BA8
:100B80001498BB4201D100F03BFC16AA904201D15F
:100B900000F09EFC1493579B169A03931593589B51
:100BA0001693002801D100F099FC5690589200232A
:100BB000579303705698B84204D0589B591C03931E
:100BC00004F07CFA149B994636F0C8FC03689A46F8
:100BD00036F0C4FC00230222036005A948463AF01F
:100BE00081FF059B8046994501D100F0D5FC36F088
:100BF000B5FC0368222B01D100F0D1FC36F0AEFC2D
:100C00000368002B00D165E343465D936B683F2B7F
:100C100001D800F0D6FC2A68403B9146984656978A
:100C2000382B01D938229046424650920F2B00D9DA
:100C30003FE3012B00D0E5E24A46AC213F33D35CD1
:100C4000490002AA5218137001233A0098464346FD
:100C50004146579300235354569B1A98BB4200D1E8
:100C600097E31CAA904200D1ECE31A93579B1C9A7D
:100C700003931B93589B1C93002800D1E8E35690E4
:100C800058920023579303705698B84204D0589B4B
:100C9000591C039304F012FA1A9B994636F05EFC35
:100CA00003689A4636F05AFC00230222036006A924
:100CB00048463AF017FF069B8046994501D100F05F
:100CC0006BFC36F04BFC0368222B01D100F067FC73
:100CD00036F044FC0368002B00D111E343465E93D9
:100CE0006B68772B01D800F067FC2A68783B914647
:100CF000E022984656975200934200D990464246C9
:100D000050920F2B00D9EAE2012B00D074E24A4640
:100D1000AC217733D35C490002AA52181370012327
:100D20003A00984643464146579300235354569BF6
:100D30002098BB4200D11CE322AA904200D1B8E324
:100D40002093579B229A03932193589B2293002828
:100D500000D1B4E3569058920023579303705698ED
:100D6000B84204D0589B591C039304F0A7F9209B68
:100D7000994636F0F3FB03689A4636F0EFFB002302
:100D80000222036007A948463AF0ACFE079B804662
:100D9000994501D100F000FC36F0E0FB0368222BFE
:100DA00001D100F0FCFB36F0D9FB0368002B00D129
:100DB000ABE243468E225F936B689200934200D26F
:100DC000F6E3BA4A29689446634498465697082B36
:100DD00001D908229046012B00D104E2002B07D054
:100DE0008E239B009C4642463800614404F050F933
:100DF000434600225793FB181A70569B2698BB4215
:100E000000D1A6E228AA904200D125E32693579B61
:100E1000289A03932793589B2893002800D121E315
:100E2000569058920023579303705698B84204D0B6
:100E3000589B591C039304F041F9269B994636F0C0
:100E40008DFB03689A4636F089FB0023022203607B
:100E500044A948463AF046FE449B8046994500D155
:100E60009AE336F07BFB0368222B00D197E336F040
:100E700075FB0368002B00D156E243469022609335
:100E80006B689200934200D292E3894A29689446A3
:100E9000634498465697082B01D908229046012BA7
:100EA00000D197E1002B07D090239B009C4642463F
:100EB0003800614404F0ECF8434600225793FB18D5
:100EC0001A70569B2C98BB4200D132E22EAA904257
:100ED00000D1ADE22C93579B2E9A03932D93589BF0
:100EE0002E93002800D1A9E25690589200235793E0
:100EF00003705698B84204D0589B591C039304F0D1
:100F0000DDF82C9B994636F029FB03689A4636F0AB
:100F100025FB0023022203604AA948463AF0E2FD7D
:100F20004A9B8046994500D136E336F017FB0368AB
:100F3000222B00D133E336F011FB0368002B00D1E4
:100F40009CE1434661934CAB99464A932B689A4681
:100F50006B6898465346002B00D13AE243465693BD
:100F60000F2B00D97AE1012B00D00EE353469421D8
:100F70001B7802AA4900521813704B46424641465C
:100F80004B92002256A85A544AA9FFF7C1F9569B22
:100F90003068BB4200D123E234AA904200D165E21E
:100FA0003360579BB26803933393589B3493002864
:100FB00000D161E2569058920023579303705698DF
:100FC000B84204D0589B591C039304F077F84A9810
:100FD000484503D04C99013104F070F8310062A803
:100FE00022F018F96B681A00183A9A4200D9DFE229
:100FF00052AB994650932B68984690444346002B39
:1010000000D1EAE11023002256A950A8569322F0FD
:10101000BFF8569B102241465293509004F038F886
:101020000022569B50995193CA54509B38984B4577
:1010300000D1BEE13AAA904200D12EE23893519BF2
:101040003A9A03933993529B3A93002800D12AE2AB
:10105000509052920023519303705098484504D009
:10106000529B591C039304F029F8389B994636F09B
:1010700075FA03689A4636F071FA0023022203607B
:1010800050A948463AF02EFD509B8046994500D124
:1010900082E236F063FA0368222B00D17FE236F059
:1010A0005DFA0368002B00D139E103E0C8FDFFFFC2
:1010B000C0FDFFFF434668936B68190008399942E9
:1010C00000D974E22B6856979C466144002900D1F0
:1010D00083E10822380003F0DBFF08235793002345
:1010E000B0229846520002AB9B1842461A703E9BB3
:1010F000390018000832039303F0CAFF4146579B9A
:101100003E9A3F93D154569B57911970569803932A
:10111000B84204D0589B591C039303F0CFFF3E9B69
:10112000984636F01BFA0368994636F017FA002302
:101130000222036056A940463AF0D4FC569B0700B1
:10114000984500D128E236F009FA0368222B00D135
:1011500025E236F003FA0368002B00D1DAE03E9B6B
:101160003168699798460B789946002B18D00D2066
:10117000D54B84460027DF5F002220234846002A03
:101180001BD1874220D0A2691342FCD120600A788B
:1011900001310D3A504242410878D2B20028EED1D6
:1011A00040AB984501D1FFF7D7FB409B4046591C07
:1011B000039303F083FFFFF7CFFBA2691342E5D04F
:1011C000A2691342F9D1E1E7A2691342FCD1624658
:1011D0002260D8E790239B00CB5CAC2102AA490097
:1011E0005218137068E68E239B00CB5CAC2102AAD8
:1011F000490052181370FBE53A00002B00D191E52D
:10120000380074E03A00002B00D120E5380058E0A7
:101210003A00002B00D1ADE438003CE00B78882187
:1012200002AA49005218137043464A4645930023C8
:101230001370449B5B4500D03BE4459A002A08D0DC
:10124000012A00D159E13800594603F021FF459A9F
:101250000E9F00230F92BB54449F3CE4002256A9EA
:101260004AA821F095FF569B4A904C93424651461E
:1012700003F00EFF569B98464A9B7FE636F06EF9C8
:10128000534603605DE6002250A956A821F080FF76
:10129000509B5690589349464246083103F0F8FE59
:1012A000509B569A984665E436F058F94B460360D1
:1012B0003EE4002250A956A821F06AFF509B5690A8
:1012C000589349464246403103F0E2FE509B569AFD
:1012D0009846BCE436F042F95346036094E4002299
:1012E00050A956A821F054FF509B56905893494658
:1012F0004246783103F0CCFE509B569A984611E551
:1013000036F02CF953460360E8E436F027F95346EB
:1013100003604EE536F022F94B4603601FE736F0D6
:101320001DF953460360C5E636F018F953460360CD
:10133000A3E5579A002A07D0012A00D101E139001C
:1013400003F0A6FE579A2C9800232D9283545698AA
:10135000CCE5579A002A07D0012A00D1FAE03900DB
:1013600003F096FE579A26980023279283545698A6
:1013700058E5579A002A07D0012A00D1F3E0390036
:1013800003F086FE579A20980023219283545698A2
:10139000E2E4579A002A07D0012A00D1ECE0390094
:1013A00003F076FE579A1A9800231B92835456989E
:1013B00067E4519A002A07D0012A00D1A6E04946E5
:1013C00003F066FE519A389800233992835450985E
:1013D00040E64346002B00D1CFE53C4816F088FD9F
:1013E000579A002A07D0012A00D1A1E0390003F062
:1013F0004FFE579A30680023726083545698DBE59D
:10140000579A002A07D0012A00D188E0390003F05A
:101410003FFE579A14980023159283545698FFF76D
:10142000C6FB002BD9D19846D9460E9FFFF738FB53
:101430002C93579B03932D93589B2E93569758AFFD
:10144000380053E51A93579B03931B93589B1C93A7
:10145000569758AF380014E42693579B039327936D
:10146000589B2893569758AF3800DBE43360579B5E
:1014700003933393589B3493569758AF38009BE5AA
:101480000E93459B03930F93469B10935B464493A7
:1014900046AB9B461F00FFF71EFB3893519B0393FF
:1014A0003993529B3A934B46509352AB994618004E
:1014B000D0E52093579B03932193589B22935697F3
:1014C00058AF380048E4C046A03A002048600410F5
:1014D0001493579B03931593589B1693569758AFA5
:1014E0003800FFF764FB5B4688224493520002AB4E
:1014F0009B18459110AF19709FE61032FF3202AB76
:101500009B181B783B70459A0E9FA2E64032FF3233
:1015100002AB9B181B780370519A389854E75832E5
:10152000FF3202AB9B181B780370579A149872E72E
:101530005832FF3202AB9B181B780370579A306801
:1015400059E75832FF3202AB9B181B780370579A49
:101550002C98F9E65832FF3202AB9B181B780370C7
:10156000579A269800E75832FF3202AB9B181B7837
:101570000370579A209807E75832FF3202AB9B1846
:101580001B780370579A1A980EE742464B46002A7A
:1015900000D1F3E4484669E60C4816F0C1FC0B485C
:1015A00016F0EEFC08220A490A4816F001FD0A006E
:1015B0000749084816F0FCFC78220549054816F052
:1015C000F7FC40220249034816F0F2FC9060041038
:1015D00098600410B060041010B5024804F096F949
:1015E00010BDC0466C380020094A83009446402252
:1015F000634410B51C68C0006240C02414408022BF
:10160000520113431C60034B9C466044416010BD73
:1016100004C001400040014070B5EFF3108C72B679
:101620000D4D2B68002BFCD0BFF35F8F0724CB0838
:10163000C618C05C01230C40A3401C0004400342B8
:1016400007D103433370BFF35F8F2C608CF3108896
:1016500070BD100000F0E4FF2C0100D0024B1868B0
:101660008007C00F7047C04600C006400021044BF1
:10167000044ABFF35F8F02C39342FAD17047C0465A
:10168000000100D0800100D0044A1078431CDBB276
:10169000172B00D9102313707047C0467013002019
:1016A00001238340002904D0034A1360034A1360D6
:1016B0007047034A1360FBE780E200E000E100E0CE
:1016C00080E100E0024B10309B688000C0587047FA
:1016D00000ED00E070B50D00EFF3108672B60F4A12
:1016E0001368002BFCD0BFF35F8F0D4B10309B684D
:1016F00084001B590B4A934203D09D4201D000F055
:10170000A7FF074B9B681D51BFF35F8FBFF35F8F30
:101710000022024B1A6086F3108870BD240100D0AD
:1017200000ED00E0CD010010F0B5DE4657464E4614
:101730004546E0B50C0083B0EFF3108A72B65A4A02
:101740001368002BFCD0BFF35F8F102291468144B9
:101750004A46564B96009B689D59554B98469D426C
:1017600005D0A54216D0534FEB1B2F2B14D94F4B4E
:101770009B689D51BFF35F8FBFF35F8F00224A4B81
:101780001A608AF3108803B0F0BCBB46B246A94683
:10179000A046F0BD1D00EAE7012383409B465A4660
:1017A000454B1B681A4000925A46444B1A60BFF3DF
:1017B0005F8FFEF758FD0190002803D0814501D0CE
:1017C00000F046FF01232A009A4393689C4208D107
:1017D0005FE04B005B189B00FB189968A14211D099
:1017E0001A00062151560029F3DA009B002B05D080
:1017F0005A46334B1A60304B1A60B8E75A462F4BA3
:101800001A60B4E706215956002921DB4A00501816
:1018100080003C188046A0689860E079D871062066
:1018200020569871002824DBA488F81A6405241532
:1018300044440019E0240005400D24022043988010
:101840005218204B9200BF181A781970BA71CCE761
:101850000199002910D1FF3191711B4991801949DB
:101860000A789A71194ADB1B5B415A43120D0A70C0
:10187000BBE7BD200002E2E7154A1649D21A083A32
:101880005002400D01439980134952080A43DA80FF
:10189000ABE70621515613000029B7DA019A002A56
:1018A000EAD14546DBE7C046240100D000ED00E068
:1018B000CD0100107413002000E100E080E100E0A1
:1018C00080E200E0A73A002000BDFFFFAAAA0000C6
:1018D000AE13002000F0FFFF00F8FFFFF8B5012570
:1018E00004000543FEF7BFFCEFF3108C72B6214AEB
:1018F0001368002BFCD0BFF35F8F1F4E2100B76829
:101900001E4A1F4B891A49414B431B0D59B2830094
:10191000F858A8421CD00623D3568B421CD0122361
:10192000D3568B4222D01E23D3568B4220D02A235B
:10193000D35603208B4210D0124B1A781970A27123
:10194000BFF35F8F00220B4B1A608CF31088F8BD39
:10195000B2680D48D050EFE7002043001B189B00F1
:10196000D218FF239371094B9380E5E70120F4E738
:101970000220F2E7240100D000ED00E07413002003
:10198000AAAA0000A73A0020CD01001000BDFFFF69
:10199000054B064A1360064A136053609360D36098
:1019A00013615361936170478080808000E400E0A0
:1019B00004E400E0024B9C466144890001607047EA
:1019C0004000003483680B4810B58446614462448B
:1019D000090112019A18591854684B6801209C4259
:1019E00001D802D00020C0B210BD12680B689A4224
:1019F000F9D8F7E7FFFFFF0FF8B557464E464546C3
:101A0000DE46E0B599460CAB1C780DAB1B780600A2
:101A100090469A460768002C11D1BC7B002C42D01E
:101A200065003B682D19033D59194B78BB73002B9A
:101A300000D1FB7300238B704B700B7004E06500CA
:101A40003B682D19033D5919B2682A4B944642460A
:101A5000E3181B0163441A604A465A600A9A9A6066
:101A60000B9ADA6000238B704B700B707B7B9B466C
:101A7000002B2BD022005946B8687B6898473A68FB
:101A8000002816D05B4658465B005B445519033B63
:101A9000A870D118D35C002B00D06B705B460C7023
:101AA0007B73A34513D0F0BCBB46B246A946A04603
:101AB000F8BD5B465B005B44033BD3189C70511937
:101AC000525D002A00D05A705B460B707C73424610
:101AD0004B46307D00F008FA051E06D05346002B19
:101AE00003D12100306800F021FC0E9B002BDAD0DE
:101AF0001D70D8E7FFFFFF0FF0B5DE464E46574694
:101B000045460023E0B58DB00A936B4B8200D35855
:101B10000B90994600239B464B46079300F06AF9C9
:101B2000079C06000F006268EFF3108572B6136819
:101B3000002BFCD022000794BFF35F8F2468637BE7
:101B40009946002B67D092685C4B90464B441B0132
:101B5000984443461A685B6810001900801BB9411D
:101B600000295FDD0B9800F0BFF90023002698469E
:101B700000279A46079C6368BFF35F8F5A461A6036
:101B800085F310885346002B08D10028C6D10DB02C
:101B9000F0BCBB46B246A946A046F0BD0A9B4146F2
:101BA00018024B461843D047089009916268EFF33A
:101BB000108572B61368002BFCD00794BFF35F8FBB
:101BC0000899099A002A48DB114303D0079B1B6937
:101BD000002B5DD1079B1B68D97B002907D04A00E9
:101BE000521819688C4649466244033A51704A4675
:101BF000DA734B46079A013BD168CA5C0132CA547A
:101C00005B46079A13615368BFF35F8F5A461A60A9
:101C100085F3108882E700230026984600279A461D
:101C20000020A7E7002901D100289BD10021200036
:101C300000F0FEFA43461E685F689B68079A9A4662
:101C40004346DB689846D3684B44013B1B780A93B4
:101C50001B020343136100208CE72369002BB9D0DA
:101C600033003C005B1A94411A002300A74219D8A4
:101C70009F421BD05946049101210391494602918C
:101C800041460191514607980091FFF7B5FEB7E72D
:101C900000F0B0F8089A099B06000F0092197B41EA
:101CA0009942E5D901225242D317E3E79642E1D99E
:101CB00001225242D317DDE76C3A0020FFFFFF0FED
:101CC00010B5124C6368002B04D00A211048FFF7AE
:101CD00071FE10BD23000F4A1021206800F0C6F9E4
:101CE000032000F07BF8032000F06EF903200A497E
:101CF00000F0B4F8FFF7C8FC084B9C46032360448F
:101D00002375074B80006060DC60DEE7BC130020B9
:101D10008C3A0020C5190010F91A00104000003458
:101D20006C3A0020F0B5D6464F464646C0B5EFF3B4
:101D300005833F22134018001038EFF3108C72B661
:101D4000204D2A68002AFCD0BFF35F8F01221100CA
:101D500081401D4C884661631C4917000E788A46F5
:101D60003100C1400F400A4209D1BFF35F8F2F609D
:101D70008CF31088E0BCBA46B146A846F0BD1449C1
:101D80008200646A51588C420FD3124BD25843469A
:101D90009E4353461E70BFF35F8F00232B608CF36E
:101DA0001088002AE6D09047E4E70B4A9B00904653
:101DB00043441A681A60BFF35F8F00232B608CF3D3
:101DC0001088D7E7280100D000400540A83A00203D
:101DD000903A0020DC380020D03F054010B50100CB
:101DE000024A0348FFF718FC10BDC046F06004101B
:101DF000A63A0020034B596A0A00986A596A8A4237
:101E0000FAD170470040054070B504000D00124A39
:101E1000536A1900966A536A8B42FAD1300019004E
:101E200024184D41AB4211D80ED02B000A494A6A02
:101E30009A42FCD307D1084A02E0516A994202D182
:101E4000916AA142F9D370BDA642EED901230124C3
:101E50006442E5175B42E9E70040054070B50400C5
:101E60000D00EFF3108672B61A4A1368002BFCD0EF
:101E7000BFF35F8F002D1BD02000FFF723FC164916
:101E800081420AD02000FFF725FC01212000FFF746
:101E900007FC0123A340114A1360114BA400E55035
:101EA000BFF35F8F00220B4B1A6086F3108870BD62
:101EB0000B4BA200D5500122A2400A4920000B780A
:101EC00093430B700449FFF72FFC00212000FFF71C
:101ED000E7FBE5E7280100D0251D0010386005402C
:101EE000DC380020A83A0020F0B54F46D6464646DA
:101EF000C0B507002F4C616A0D00A66A616AA9424D
:101F0000FAD18B4208D805D00120E0BCBA46B146D0
:101F1000A846F0BDB242F7D9EFF3108A72B6264850
:101F200001680029FCD0BFF35F8F0125BD40234924
:101F3000204C8846097889462943C9B28C464146D7
:101F400060460870391D1E48890065630A51B90052
:101F50000B50216A0020294219D0616A0800A66A44
:101F6000616A8142FAD18B4219D801D1B24216D8A6
:101F7000CC451DD00F4B1F201D625D630123074020
:101F8000BB40104A1E38136043464A461A70BFF3DE
:101F90005F8F0022084B1A608AF31088B5E7002093
:101FA000BFF35F8F0022044B1A608AF31088ACE7FE
:101FB0000120ECE700400540280100D0A83A0020AD
:101FC000903A002080E200E0EFF3108C72B60A49EC
:101FD0000B68002BFCD0BFF35F8F01238340074ABF
:101FE0000748136202789A430270BFF35F8F0023A1
:101FF0000B608CF310887047280100D0004005402A
:10200000A83A002070B5050014001600002915D06C
:102010000C00002A12D080686B6898472968002855
:102020000ED073009B196200033B1219CB18033AC0
:102030009C7088188A5C002A15D10670200070BD3B
:1020400063001B197200033B9219CB18033A9E7070
:1020500088188A5C002A02D104703400EEE75A70B6
:1020600004703400EAE75A700670E7E730B5836021
:102070000023CCB243730133047342608373C4738F
:102080000D000068012C06D9421C0133DBB213702D
:1020900003329C42F9D1FF2129404B0059180023FB
:1020A00040180338437030BDF8B5CE4647460600A9
:1020B0000C0080B5002907D04D0003686D18033D62
:1020C0005A195778002F04D12000C0BCB946B04639
:1020D000F8BD7900C91903398846434459788946BF
:1020E00000215970517073683A0021008068984748
:1020F0003368002814D042469A18947059195B5DD1
:10210000002B00D053700F70270049463000FFF7B6
:10211000CBFF390002003000FFF774FF0400D3E763
:10212000424641465D19AF709A185B5C002B00D0A7
:102130006B701470E9E7C046F0B557464546DE4679
:102140004E46E0B50D006B0001685B19DF1E040010
:10215000C85D83B00192CA1900284CD043001B18F7
:10216000033BCB185E78B446002E16D1019E002E9C
:102170003ED0E67B002E04D073009B19CB18033BA6
:102180005D70E57300282FD10023537003B0F0BCBD
:10219000BB46B246A946A046F0BD72006244033A6F
:1021A00089184A78904600224A7091465A70010078
:1021B00032002000FFF726FF43468246002B07D05F
:1021C0005B0021684344033BCB185A78002A16D1A0
:1021D000424651462000FFF715FF2168019BCA19AE
:1021E000002BC6D10028CFD043001B18033BCB18CF
:1021F00000219970C8E7019B002BBAD1C4E75000B9
:102200008018033809184878834648464870587043
:1022100041462000FFF7F6FE594680462000FFF7B2
:1022200043FF414602002000FFF7ECFE8046CFE767
:10223000F0B557464546DE464E46E0B583B00191BF
:10224000457B04006B0000685B19DF1EC15DC2198D
:1022500000294ED04B005B18033BC3185E78B44690
:10226000002E18D1019E002E40D0E67B002E04D017
:1022700073009B19C318033B5D70E573002931D1CE
:10228000002328005370617303B0F0BCBB46B24614
:10229000A946A046F0BD72006244033A8018427815
:1022A00090460022427091465A7020003200FFF79B
:1022B000A9FE43468246002B07D05B0021684344B9
:1022C000033BCB185A78002A17D1424651462000CA
:1022D000FFF798FE019B01002068C219002BC4D1B2
:1022E0000029CDD04B005B18033BC3180020987029
:1022F000C6E7019B002BB8D1C2E750008018033815
:10230000091848788346484648705870414620006E
:10231000FFF778FE594680462000FFF7C5FE41468C
:1023200002002000FFF76EFE8046CEE770B5040085
:1023300000292CD0437B8B422ED0056848004018E2
:10234000033828188278002A21D053009B18033BB9
:10235000EA5CEE188A4202D11BE0002A08D0530042
:102360009B18033BEB185A788A42F6D142785A7090
:1023700000230122837043702000FFF7DDFE617BA4
:1023800002002000FFF73EFE6073012000E0002005
:1023900070BD43783370EBE701221900FFF7CCFEE4
:1023A00060730120F4E7C04610B50400FFF76CF934
:1023B00001002000FFF7FEFAFF232371BFF35F8FB8
:1023C00010BDC04610B50400FFF75EF90100200003
:1023D000FFF7F0FAFF23A380BFF35F8F10BDC04665
:1023E000F8B5040006200D0000F096FA002844D04D
:1023F0002A4B2B49E21853425A418023DB039C4667
:102400009205284B62441A60274B1A6010008B68B3
:102410009843FBD1214B8021E3185A425341234A70
:102420005B0049009952062000F076FA2900C000AE
:1024300001F05EFEC30921D140270121260080253D
:102440006162A36200232C36AD0135432B60062068
:1024500000F062FA3900800001F04AFE6023E26A6F
:1024600053406E221A4080235B0133431A60104BA5
:10247000236310232B600D3BA364F8BD0D4A9342E8
:1024800003D900230C4F0D49D8E77F2210400130BB
:1024900040089F0119003F180300CFE70080FCBFF0
:1024A00000C0004000E0004000F00040A03A0020E2
:1024B00001030000FEFF0000C0FF3F00FFFF00001F
:1024C0002C4B2D4A70B51A602C4A2D4B2D491A60A1
:1024D00014008B689C43FBD12B4D2C4EB54208D287
:1024E000013E761BB60808CD984723000134B3425D
:1024F000F9D100F0B3F8264A214B1A60214A9368BB
:10250000DB43DB01DD09002BF9D14022214B224CBA
:10251000224E9A675A671A67DA66B44208D223686D
:102520002000002B20D00834FFF74CFFB442F6D334
:102530001B4E1C4CC022A168300002F0A9FDA66011
:10254000FFF794F8FFF724FAFFF7BAFB164C174E83
:10255000B44208D2013E361BB60808CC98472B007F
:1025600001359E42F9D170BD0834FFF71DFFB4421A
:10257000D5D3DDE700E00040BFCDFBFEFE7F3C0091
:1025800000F0004000C00040C01E0020D01E00200F
:10259000FFFFFF0100F00140B81E0020C01E002018
:1025A0000000002000ED00E0D01E0020F81E0020FA
:1025B00000BEFDE7094A03001068002805D008495D
:1025C000C3188B4207D81360704706480449C318E4
:1025D00010608B42F7D901204042F5E7603A0020B5
:1025E00000000420AC3A002000BEFDE710B50C004E
:1025F00082B01900002A09D0064B01920093020014
:102600002300054801F0DAFC00BEFDE7034B1A0089
:10261000F3E7C046146104102461041018910410FB
:102620000FB400B5084883B002F07CFE049B002B79
:1026300007D005A91800019101F0E0FC034802F061
:1026400071FE00BEFDE7C04654610410D49E041024
:1026500010B50148FFF7E4FF6461041030B50C20A9
:1026600083B000F0B7F9FEF7F9FF00280ED0944BC5
:10267000944A1A605A609A60DA601A615A619A61E3
:10268000DA611A62904A5A6203B030BD8F4CA0677B
:1026900000F0A8F901228E4B1A60636C012BFCD16B
:1026A00003228C4B1A60894A936B012BFCD10133B6
:1026B0000121894A89480093043300F033F9052346
:1026C000874A00930121874800F02CF9864B5A680D
:1026D000FF2A02D8802252005A608022784C7D4B1B
:1026E00021691201804D1A60002905D0606901F04E
:1026F000FFFC01300138FDD1E0217B4B02201A683C
:102700001140802252012A43116019684840032178
:102710000140116004219A681142FCD0802280217E
:1027200092012A4309011160802252005A606F4BC6
:1027300023616F4B5968FF2900D85A600321644A0E
:102740006B4B116002399A681142FCD0E0201A6884
:102750001040802252011A4310601868484003213B
:1027600001400220116062498A681042FCD0802238
:1027700092011343802212011A6080225D4B5200A5
:102780004A6063615C4B5968FF2900D85A60802217
:102790005A4BE1691201584D1A60002905D0606951
:1027A00001F0A6FC01300138FDD1E02252490B684E
:1027B0001A4080235B012B431A60802380229B01F7
:1027C0002B4312011A6080223E4B52004A60E361A3
:1027D0004B4B5968FF2900D85A608022494B216A27
:1027E0001201474D1A60002905D0606901F080FC94
:1027F00001300138FDD1E02241490B681A408023A5
:102800005B012B431A60802380229B012B43120122
:102810001A60802380225B004B602A4BD202236225
:10282000394B5968914200D25A608022374B616A15
:102830001201354D1A60002905D0606901F058FC7D
:1028400001300138FDD1E0222F490B681A40802366
:102850005B012B431A60802380229B012B431201D2
:102860001A608023DB024B60174B6362284B5A6867
:10287000FF2A02D8802252005A608022254BA1698B
:102880001201234D1A60002905D0606901F030FC67
:1028900001300138FDD1E0221D490B681A40802328
:1028A0005B012B431A60802380229B012B43120182
:1028B0001A6080235B004B600E4BA361E4E6C046C8
:1028C000EC390020006CDC021BB7000000800040E7
:1028D0003CB0004030B00040002F685900800240FA
:1028E000008C864700C0024030800040001BB700CB
:1028F0003C800040405973075480004054B0004071
:102900006080004060B000406C8000406CB00040CF
:102910004880004048B00040014B8000C0587047DC
:10292000EC390020F0B5C646040000B50C209046F6
:102930001F000E0001F0DCFB4101091A8D01691A2C
:10294000C90009188901404601F0D2FB069B3F04EB
:102950001A0323681743002B22DB1A4B1A4DE21887
:1029600053425A4180235B019C461203174B624439
:102970001A60174B1A601100AB689943FBD1C02253
:10298000231D92011A4321232660A060136023684F
:10299000002BFCDA0823E760136080BCB846F0BD6A
:1029A0003F2322681340B342D7D1A3681B051B0DF8
:1029B0008342D2D1EE22E368D2021340BB42CCD193
:1029C000EBE7C0460040FDBF00C0004000E0004013
:1029D00000F000408023024A9B000343D36270470B
:1029E00000800540AA23064A1B0113602F230549D6
:1029F000D360054B19605368002BFCDA7047C04662
:102A00000040024000B0FA00006002409A4200D24A
:102A1000885470477047C046F8B557464E464546FD
:102A2000DE46E0B599460A9B07009A460D9B88460C
:102A3000934615000B9E9B0710D10C9B9E420DD216
:102A40009D1B14000E005D4422004B4601343100F2
:102A50002020B847A542F7D1B0460B9E002E27D0C4
:102A6000444675195346AA1B013E985D21004B460A
:102A7000B847002EF6D123002C0098460D9B9B07EB
:102A80000FD55B46E51A0C9BAB420AD946469846E1
:102A900022004B46310020200135B8470134A845BB
:102AA000F6D82000F0BCBB46B246A946A046F8BD09
:102AB0002C00E3E7F0B54F464646D646C0B584B095
:102AC00098460EAB1B78129F994694460D9C109B1E
:102AD000119EBA0725D4002E4BD19C4200D3BFE0F3
:102AE00001223A4092461F2C00D9B8E00C9A551E9C
:102AF000302201E0202C03D001342A55A342F9D81A
:102B00005246002A0DD0A6420BD9202C44D00C9A54
:102B1000551E302201E0202C3ED001342A55B4420B
:102B2000F9D1FA064DD57A053FD4002C39D10F9B47
:102B3000102B00D179E00F9B022B00D18AE03023CB
:102B40000C9A012413704B46002B3FD02D230C9A76
:102B5000135501340C9B624600930397434602963B
:102B60000194FFF759FF04B0E0BCBA46B146A8464D
:102B7000F0BD012215003D40AA463A422FD04A46F8
:102B8000002A02D10C323A4200D0013E9C42BAD215
:102B90001F2CABD9202E27D92024FA06DAD57A05A6
:102BA00003D4A3422DD0A6422BD00F9B102B32D0A2
:102BB000022B20D0202CCDD030220C9B1B191A7058
:102BC0000134202CC6D04B46002BBFD17B070DD43F
:102BD0003B07BFD520230C9A13550134BAE79C421A
:102BE0009FD21F2C00D881E720249AE72B230C9A30
:102BF00013550134AEE7202CACD00C9B1B190134CB
:102C00003AE0631E012C92D00F9A102A2AD0022A91
:102C10002FD01C00D0E7BB060ED4202C9AD00C9BE2
:102C20001A19013478231370C4E7BB060DD4782336
:102C30000C9A01241370BFE7202C00D18AE7582298
:102C40000C9B1B191A700134B4E758230C9A012409
:102C50001370B1E70C9A603301241370ACE72024A1
:102C600000265EE7023CBA06E9D40C9A12191C0051
:102C7000D8E70C9A9246534462221A709AE7C046EB
:102C800010B5002800D110BD02F0FCFAFBE7C046E9
:102C9000F0B5DE4657464E464546E0B59BB09B46EE
:102CA000249B89469846259B0B900C9240464246B1
:102CB00019009A4601F0F5FC002800D0D8E0012266
:102CC00040465146774B524201F0E6FC002800D0C6
:102CD000CEE0012240465146734B524201F0C6FC01
:102CE000002800D0C4E0002200234046514601F0F5
:102CF000BDFC002800D0B9E1424653460A92099330
:102D00008023289ADB001A400E92289A1A4201D199
:102D1000062326930A9A099B1600134300D0C7E0A6
:102D2000289B002500261B0500D49BE100230D9362
:102D3000269A0D9B9A4200DC9FE1D01A431E2693EF
:102D40008023289ADB001A430023002728920D9342
:102D5000279B0024BB4200D9DC1B0223289A1A407F
:102D60000E92289A134203D07B427B415B421C4067
:102D70000D9B002B07D00A9809992A00330001F017
:102D80000CFC0A900991002200234046514601F0B4
:102D90006DFC002805D08020000684460999614416
:102DA0000991289A414B0B9D13400493269B0A9A44
:102DB0000293099B03940092019349465B462800C5
:102DC0000C9A00F08BF90400002F62D0289B22009F
:102DD00098061F23C0179843631C984649465B46D4
:102DE0006530A8470D9B0025DA179C18DB0F9A4623
:102DF0005440013F01E0202D13D00AAA94461F231E
:102E0000200063440A2101355E1901F071F9303167
:102E1000317020000A2101F06BF926000400092E10
:102E2000E9D805230693002304930A3303935346FA
:102E300005970B9F029312AB009342465B464946AF
:102E400038000195FFF736FE0E9B0400002B20D0C2
:102E50000C9BC51A279BAB421BD91E0022005B4668
:102E6000494620200135B8470134AE42F6D810E07B
:102E7000289B42460493279B49460393269B0B9825
:102E800002935346009201935B460C9A00F026F998
:102E9000040020001BB0F0BCBB46B246A946A046C9
:102EA000F0BDC046FFFFEF7FFFFFEFFFFFF7FFFF23
:102EB000734B099F9C467800400D604401F004FC70
:102EC000704A714B01F087FB704A714B01F05CFB5B
:102ED0003B03704A1B0B1A4304000D003000110025
:102EE0006D4B002201F047FB6C4A6D4B01F073FB08
:102EF00002000B002000290001F046FB01F0FCFB62
:102F00000D9001F0E1FB674A674B04000D0001F0F2
:102F100062FB0022654B01F037FB01F0EDFB644AD8
:102F20000600644B2000290001F055FB040030002E
:102F30000D000F9601F0C8FB5F4A604B01F04BFBA0
:102F400002000B002000290001F015FB02000B001D
:102F500006000F0001F03FFB320004000D003B00B3
:102F60003000390001F010FB002210901191544BF9
:102F70002000290001F011FB0022524B01F004FB5C
:102F800002000B002000290001F007FB00224E4B3D
:102F900001F0FAFA02000B002000290001F0FDFA0E
:102FA0000D008021040032003B000020C90501F023
:102FB000E2FA02000B002000290001F0E5FA02000D
:102FC0000B001098119901F0E8FA0022314B01F042
:102FD000DBFA3E4B0F9C9C4664440022230501F023
:102FE000FAFA05000E0002000B000A98099901F098
:102FF0003DFB00280AD00D9B2800013B31000D93BA
:103000000022304B01F0C9FA05000E00C6270D99C9
:103010002B0063318F42BF4128997F420437090555
:1030200000D495E6334300D182E6099C284A21006A
:10303000284B0A9801F028FB002808D00022210024
:10304000254B0A9801F012FB002800D070E6269B61
:10305000002B00D17CE60E9B5A1E9341269AD31A70
:10306000269375E6002304270D9371E643460A93E1
:1030700080231B065344099342E6002326935FE610
:1030800001FCFFFFFB799F501344D33FB3C8608B13
:10309000288AC63F0000F03F0000F83F61436F639D
:1030A000A787D23F71A379094F930A400000E03F00
:1030B0001655B5BBB16B0240EF39FAFE422EE63F22
:1030C00000002C400000244000001840FF030000D6
:1030D0002D431CEBE2361A3F80842E41F0B54E465C
:1030E000DE4657464546E0B597B09946209E219F5B
:1030F000229B8346984607910C923B003200300099
:10310000390001F0CEFA002800D0A9E101223000F8
:103110003900CA4B524201F0A9FA002800D0E1E080
:10312000012230003900C64B524201F0B5FA0028A6
:1031300000D0B7E0002230003900C24B01F0ACFAF9
:10314000002800D099E0002230003900BE4B01F089
:103150008DFA002800D090E00022002330003900D2
:1031600001F084FA002800D0B1E000230D93249BE5
:103170005B0501D40623984608AB9C461722002421
:1031800030234146624404E0013413550139202CB8
:1031900001D00929F8D888463000390001F0ACFA8E
:1031A0004346DA00A94B05009B181A685B68089231
:1031B000099301F089FA02000B003000390001F098
:1031C000DAF9089A099B01F006FA0A900B9101F0CE
:1031D000B7FA824601F074FA02000B000A980B99C4
:1031E00001F0C9F900229A4B0A900B9101F054FAB0
:1031F000002800D1C0E001239C46E244504601F083
:103200005FFA02000B000898099901F035FA0028CE
:1032100002D000239A4601354346002B6AD008AB02
:1032200017269C4608956644554614E001235B42E8
:1032300043440A2128009A4600F05AFF01343031F5
:103240003719397028000A2100F052FF092D00D8E3
:10325000D0E0D0460500202CE8D10EAB98460323E1
:10326000249A1340012B00D196E02023249A019345
:103270000392239A434602921EE0249B58460493ED
:10328000239B00960197039343460C9A0293079958
:103290004B46FFF7FDFC17B0F0BCBB46B246A94653
:1032A000A046F0BD249B5B070ED40322694B2499F2
:1032B0000192039123990291009358464B460C9A30
:1032C0000799FFF7A9FBE6E70422634BEFE73B0012
:1032D00032000020002101F04EF9012306000F000A
:1032E0000D9344E7249B0393239B029304230193B0
:1032F0005A4BE1E7280001F0E7F902000B0030002B
:10330000390001F038F9524B002206000F0001F09D
:10331000ADF90EAB984600280AD1002230003900E2
:103320004B4B01F0B9F9002802D1EB0700D501356C
:10333000202C94D008AA94461723280063440A211D
:1033400001341E1900F0ACFE3031280031700A2122
:1033500000F0A6FE051EEBD10323249A1340012B97
:103360001BD0202C00D180E70D9B002B35D02D22C7
:103370004146631C0A5579E700220A980B99344BA1
:1033800001F074F9002800D046E75346002B51D1D4
:1033900001239C46E2443FE72024239B002BE0D0FE
:1033A0000D9B002B03D1249A0C33134202D0239B94
:1033B000013B2393239BA342D3D908AB9C461722FE
:1033C00030236244202C00D14FE723990134135558
:1033D0008C42C6D0202CF8D147E7249B5B0724D42D
:1033E000249A2300120700D440E7202241460133EB
:1033F0000A553BE75746089D202C00D12DE72200B7
:1034000030214046002F09D00132B154202A00D18A
:1034100023E7D3431B191B18002BF5D10EAB98469D
:103420002E234146541C8B5482E72B224146631CB9
:103430000A551BE7DB0700D4EEE6A9E7FFFFEFFF25
:10344000FFFFEF7F65CDCD4165CDCDC16863041031
:103450000000E03F7061041074610410806104108A
:10346000249B0393239B029303230193004B23E7A5
:103470007C610410F0B5DE464E4657464546E0B541
:103480009FB01C00289B91460993C94AC94B8B46A3
:1034900008901A60002900D118E2002320789A468B
:1034A000002800D11AE226001D005C460AE02A002E
:1034B0006F1C4B46089D2100A8473D00013630781F
:1034C000002870D02528F2D110239B46083B9A464D
:1034D000043B9846023B00219C46721C1078160063
:1034E0000300203BDBB2102B03D8B34F9B00FB58EB
:1034F0009F460300303B092B32D900230A932A2828
:1035000068D0002398462E283ED00300683BDBB2EB
:10351000122B1CD8A94A9B00D3589F460123013285
:103520001943DBE7634601321943D7E743460132CB
:103530001943D3E75B4601321943CFE753460132C3
:103540001943CBE780235B007078194301360300F1
:10355000253BDBB2532BAAD8994A9B00D3589F46F0
:1035600000270300B800C01901364000C0183378A6
:1035700030381A00303A0700092AF3D90A901800A7
:10358000002398462E28C0D180237078DB00194391
:103590000300303B721C092B00D8A1E12A2800D17E
:1035A000B2E11600B1E7A346AA462C00D14503D8E4
:1035B00001235B424B449A464B46524659460020F3
:1035C000089DA84720001FB0F0BCBB46B246A946E4
:1035D000A046F0BD099B40CB0A96002E03DB507835
:1035E0000993561C8DE72838014370420A900993CD
:1035F0005078561C85E7782800D1DFE1582800D1A3
:103600004CE26F2800D14FE3622801D100F030FC7A
:1036100010230A009A430B92692801D000F0A9FCFC
:103620000A230C934B0500D5D0E10B9A802311009F
:103630009B0019408B461A4200D0A1E28023110062
:103640005B0019408A461A4200D0B6E313005B06BD
:1036500000D5EDE2130009991B0601D400F076FCB9
:1036600008C91BB2D8171A18424092B20991934662
:10367000DA0F1292002B09D1802310220B99DB0064
:103680000B4091430B91002B00D0E4E20B9A612395
:10369000920600D541230EA91F228C46DBB262445C
:1036A0000A3B5F461395A34655460C9CB2460D93C4
:1036B00016000AE03033DBB201357355A74200D261
:1036C000EDE2202D00D1EAE207002100380000F0F1
:1036D0000FFDCBB20929EDD90D9A94466344DBB2B4
:1036E000EAE780239B007078194301362FE7707852
:1036F000682800D1CDE180230136194327E770788F
:103700006C2800D1BFE180235B00194301361EE71E
:10371000462800D19BE10722099B0491073393437C
:103720000A9A19000392424602920CC90898009224
:10373000019309912A004B462100FFF7CFFC013687
:103740000500BCE62A006F1C4B46089D2100252081
:10375000A84701363D00B2E68B0700D4ADE1099BD6
:103760002A009A466B1C9846534601CB21009A4684
:10377000089F4B46C0B2B8470A9B9C466544012B44
:1037800000D886E2089B4746B04626004C4699463C
:103790003A002300013731002020C847AF42F7D15B
:1037A000A1465346340046460993013687E6C04693
:1037B00075340010683A002088610410CC61041050
:1037C00018620410099B04CB9B4643460992002BC8
:1037D00000D1C6E013789C46002B00D1BDE34346E0
:1037E000013B099A0133D0180A9F130001E083427C
:1037F00003D05A780133002AF9D1099A0A979B1A03
:103800000B9380230A00DB001A400C92194204D06B
:103810000B9B434501D943460B9302231A000A40F0
:103820000D920B4200D187E16046002800D168E18B
:103830000C9B002B00D10DE1A844C246099B5746C2
:103840005B1B9846089BB2462A0026004C469946C8
:1038500009E023003100551CC8474346585D002845
:1038600000D126E12A009742F3D1A1463D00340061
:1038700056460D9B002B00D043E15B460136099371
:103880001DE6099B1A0008CA9246002B48D0212247
:1038900011438B460EA884461F21614409950022DE
:1038A0000F27A4460D0002E0202A0CD00B003C009C
:1038B0001C4020003730092C00D807380132A854AA
:1038C00019090F2BF0D86446099D32E0DC4B2078B3
:1038D000089300239A46002800D0E4E5002465E61A
:1038E000434606000A9F9800C01801324000801924
:1038F0001678030030003038303B0928F3D9300007
:10390000984616000A9700E6099B023604CB9046BB
:10391000D2434046D2171040804609933078F4E5F0
:1039200010220800904311321043834600224905BB
:10393000B0D55B46069308230593434604931023B2
:1039400003930023029316AB019200932A004B4687
:1039500021000898FFF7AEF8534605000136099399
:10396000ADE513789C46002B00D1F7E202235B42C1
:1039700037E7202302009A43472A04D180231B0102
:10398000194302239843452801D1202319430722D4
:10399000099B0491073393430A9A19000392424604
:1039A00002920CC908980092019309912A004B4693
:1039B0002100FFF76DF90136050080E510230C9317
:1039C0000C230A009A430B924B0503D501230B9A53
:1039D0009A430B92692800D127E6642800D124E697
:1039E0000B9A802311009B0019408B461A4200D08D
:1039F00066E1802311005B0019408A461A4200D01C
:103A000039E213005B0600D53CE113001B0600D42D
:103A1000A6E2099B04CB1204120C934609935B4661
:103A2000002B00D09AE10B9A1033110099430B91AF
:103A3000520500D492E100239A460B9B06930A9B01
:103A40000593434604930C9B039300230CE120232E
:103A5000194360E6099B0A9A5B1B98464B469146C0
:103A60001F00B2462600089C2A003B003100A047F8
:103A700043460135585D0028F6D14A463400B94620
:103A800056460A92F5E6C0239B00B07819430236E9
:103A90005DE5C023B0781943023658E50C230A00CF
:103AA0009A4314331A43103B0B920C934B058DD45D
:103AB00096E7A14634005646DBE60A9A012A00D86A
:103AC00053E26B1E9F18089BB04626004C46994651
:103AD0002A002300013531002020C847BD42F7D11C
:103AE000A14634004646099B3A0001CB2100984686
:103AF0007D1C4B46089FC0B2B84743460136099328
:103B0000DDE40B9B0A9AA8469A4200D8B5E6944693
:103B10006544ED1A089B4746B04626004C46994638
:103B20003A002300013731002020C847AF42F7D1C7
:103B3000A14634004646A0E60B9A0A99531C9142CE
:103B400000D814E24B199B1A1F00089BB2462600AE
:103B50004C4699462A002300013531002020C847F1
:103B6000BD42F7D10A9BA14601330B93099B340058
:103B70001B7856469C466046002800D058E67CE6F6
:103B80000722099B07339343013294469C446246C3
:103B90005F6809921A68FB17109311931098119996
:103BA000030053400E930B007B400F9394460E9AF4
:103BB0000F9B121A8B410E920F93FB0F62461293CA
:103BC00000233A439B463DD00B9A6123920600D5D1
:103BD00041230022DBB20EA90A3B8C4692460D938C
:103BE00043461F3262441395159655460E9E0F9F0D
:103BF000A24690460C9C14930CE03032D2B243465D
:103C000001355A55BB4500D18AE1202D00D18AE10A
:103C100006000F00220000233000390000F0AAFA4D
:103C2000D2B2092AE9D90D9B9C466244D2B2E6E79A
:103C3000FF23099904C913401A00099117E5C046EA
:103C4000152A00100B9A1033110099430B9152055D
:103C5000BAD500239A460B9B06930A9B05934346CD
:103C600004930C9B0393129B02935346019316AB50
:103C70002A00009321004B460898FEF71BFF0136EF
:103C800005001CE4FF22099B02CB11408B460993DF
:103C9000C5E65346454609930136FFF710FC5646E4
:103CA0005C46AA46139DD6E708230C930B910B990B
:103CB000642800D084E60B9B5B0500D586E6B4E45F
:103CC0000722099B07339343013294469C44624682
:103CD00009921A685B6810009B4613005A4613430A
:103CE00007D10B9A1033110099430B91520500D55F
:103CF000A1E60B9A6123920600D541230022DBB294
:103D00000EA90A3B8C4692460D9343461F326244ED
:103D10005F461295A34655460400B24690460C9E57
:103D200013930DE03032D2B2434601355A55002389
:103D3000BB4200D100E1202D00D100E104000F00C2
:103D4000320000232000390000F014FAD2B2092A10
:103D5000E8D90D9B9C466244D2B2E5E70B9A6123F9
:103D6000920600D54123DBB20EA90A3B1F228C46E6
:103D70000D93230062445C461295170055469B46FE
:103D8000B2460C9E08E03033DBB201357B55B442BD
:103D90000ED3202D0CD004003100200000F0A8F933
:103DA000CBB20929EFD90D9A94466344DBB2ECE714
:103DB00056465C46AA46129D3FE6099B1A0008CA71
:103DC000D91713925A184A409246DA0F1292002BD2
:103DD00008D1802310220B99DB000B4091430B91FB
:103DE000002B2BD10B9A6123920600D541230EAAFA
:103DF0001F279446DBB20A3B0D9567445D46099345
:103E0000A3465446B2460C9E08E03033DBB201357F
:103E10007B55B4420ED3202D0CD00400310020007D
:103E200000F066F9CBB20929EFD9099A94466344A8
:103E3000DBB2ECE756465C46AB460D9D0B9B2A0079
:103E400006930A9B21000593434604930C9B089814
:103E50000393129B013602935B46019316AB0093CA
:103E60004B46FEF727FE139B05000993FFF727FB40
:103E700002230C931AE7099B04CB92461293002A63
:103E800008D1802310220B99DB000B4091430B914A
:103E9000002B2BD10B9A6123920600D541230EAA49
:103EA0001F279446DBB20A3B0D9567445D46099394
:103EB000A3465446B2460C9E08E03033DBB20135CF
:103EC0007B55B4420ED3202D0CD0040031002000CD
:103ED00000F00EF9CBB20929EFD9099A9446634450
:103EE000DBB2ECE756465C46AB460D9D0B9B2A00C9
:103EF00006930A9B21000593434604930C9B089864
:103F00000393002302935B46019316AB00934B4649
:103F1000FEF7D0FD129B050009930136FFF7CFFA9B
:103F2000B44200D871E6149B54460E960F97AA46E9
:103F30009846159E139D8EE6A64200D8FBE6139B7D
:103F400056469846AA465C46129D76E508C9D8179B
:103F50001A1842400991FFF78AFB00230B9350E4A3
:103F6000099B04CB9346099359E52F00BBE50B93BE
:103F700001E6063B0C939AE60EB4012210B585B01B
:103F800007AC08CC01000094524204480394FFF7A8
:103F900071FA05B010BC08BC03B018470D2A001018
:103FA00000B583B0009313000A0001000248FFF738
:103FB00061FA03B000BDC0460D2A00100FB410B561
:103FC0000C4984B006AA08CA0C680392002C0BD0D6
:103FD000009201220848524202A9A047012004B0E1
:103FE00010BC08BC04B01847180001F09BF9002071
:103FF000F5E7C046683A0020812C001010B5094A48
:104000000300146884B0002C08D0012200910648F7
:10401000524203A9A047012004B010BD01F082F96B
:104020000020F9E7683A0020812C001001480421A3
:10403000014B1847F01300205D400010142310B509
:104040000100188804331B88984710BD162310B54B
:104050000100188802331B88984710BDF8B5474601
:10406000CE4680B50F1E19D01423994604330400A0
:104070000025012698464B461888434621681B8830
:10408000984701C4431E9841013540420640AF4263
:10409000F1D13000C0BCB946B046F8BD0126F8E702
:1040A000124A936F9B0815D29066D166002905D0FD
:1040B000FFE7FFE7FFE7516F106F704704B58021FE
:1040C0000906C2175140002800D0C84341F064FFE0
:1040D000002104BDF0B5146E556E576F166FFFF7D3
:1040E000E3FF1466556657671667F0BD000000D001
:1040F000114A936F9B0813D210665166002905D0B0
:10410000FFE7FFE7FFE7516F106F704704B5002826
:1041100001D00020C04341F03FFF002104BDC04654
:10412000F0B5146E556E576F166FFFF7E5FF146606
:10413000556657671667F0BD000000D094464E4A9A
:10414000926F9208624601D230E0C046F0B54A4E06
:10415000B56F6D08FCD3346E756E776F366F00F0F7
:1041600025F89446444A14665566576716676246B2
:10417000F0BDC0469446404A926F9208624601D212
:1041800058E0C046F0B53C4EB56F6D08FCD3346EB8
:10419000756E776F366F00F04DF89446364A1466A8
:1041A0005566576716676246F0BDC046002B24DB94
:1041B00011D000293EDA00B5C943404200D1013197
:1041C00000F038F8C943404200D10131DB4352428C
:1041D00000D1013300BD002AEBD1002801D1002914
:1041E00005D00020C90FC90701D1C043410800B55F
:1041F00041F09AFE0022002300BD00B500290ADB31
:10420000DB43524200D1013300F014F8C94340426D
:1042100000D1013100BDC943404200D10131DB432F
:10422000524200D1013300F005F8DB43524200D185
:10423000013300BD002923D1002B18D1002A0CD056
:10424000BC460D4F38667A6600210023FFE7FFE782
:10425000FFE77A6F386F67467047002801D007483C
:10426000010000B541F060FE0022002300BD020005
:104270000B00002000217047000000D0FFFFFFFF6F
:10428000002B00D0BFE0130C28D1002AE7D080B467
:10429000114F39667A66FFE7FFE730B4040C7B6F95
:1042A000396F1B0423433B667A66FFE7FFE7FFE7AE
:1042B000C04684B27B6F3D6F1B0423433B667A6626
:1042C000FFE7FFE7C04600232C042D0C7A6F386F00
:1042D00000196941B0BC7047000000D0F0B59446A9
:1042E0000025140E01D112020835140F01D112015C
:1042F0000435940F01D192000235D40F01D1520040
:104300000135D40B0134254F7C66254C3C660E0CE0
:1043100093B2FFE7FFE7FFE73C6F6643360C770396
:10432000BE467343DF0B5B04C01AB941130C7343E1
:10433000DB18C91ACE086643360CB64493B27343F1
:104340001F0F1B01C01AB941130C73431F0B1B0530
:10435000C01AB941860D8F023E436643360C092DC3
:1043600024DB520A7243801A7703460A6643360CEE
:1043700016235B1BDE40DF40BF1964466643821B89
:104380007046043506330100D940A840C01900D357
:104390000131A24206D20023F0BD0000000000D08F
:1043A000FFFFFFFF121B0130F3D3F1E709277F1B4B
:1043B000FE406446A2B27243801A00D20139220C38
:1043C0007243130C1204821A99410B007046043593
:1043D00013370100F940A840801900D30131002BA8
:1043E00002D1A2420AD2F0BD013000D30131121B2A
:1043F000FAD2013BF8D1A24200D2F0BD013000D385
:104400000131121BF7E7F0B51C0C00D080E00CB4B2
:1044100000251C0A04D11B02160E33431202083574
:104420001C0B04D11B01160F3343120104359C0BE6
:1044300004D19B00960F334392000235DC0B02D16E
:1044400092185B4101351C00971864410134464FB6
:104450007C66464C3C660E0CFFE7FFE7FFE7C04674
:104460003C6F6643360C7703BE4697B27743C01B5A
:1044700000D20139C01B00D201399FB27743C91B5A
:10448000C91B170C77437E04FF0B801BB941CE0874
:104490006643360C0C2D33DBB644120B1F053A4332
:1044A0001B0B97B27743C01B00D201399FB27743F1
:1044B000C91B170C77433E043F0C801BB941860D86
:1044C0008F023E43664329277F1BFE400C3D774603
:1044D000AF40BF1930BCA2B2ABB272437343801A73
:1044E0009941220C7243130C1204801A9941020064
:1044F0000B000137001BA941F9D2781E0021F0BD45
:104500000C277F1BFE4077467F0BAF40FF19E0E78B
:1045100000245D1C07D0144F7D663966FFE7FFE776
:10452000FFE7FFE73C6F95B29EB265436643401BD1
:10453000B141150C1E0C6543664336042F0C3E43F7
:104540002D04401BB141994204D202000B0020000F
:104550000021F0BD01D19042F7D3801A9941013476
:104560009942F2D3F6E70000000000D0FFFFFFFF02
:1045700048404140484018B41B4B5B68FC460193DF
:1045800008BD04DFA748001018B4174B1B68FC4691
:10459000019308BD00DFB14800109446134A926FA2
:1045A000920809D2624618B40F4BDB68FC460193AF
:1045B00008BD0CDF694B00100C4AF0B5146E556E47
:1045C000576F166F6246FFF7EEFF084A146655668E
:1045D00057671667F0BD18B4034B9B68FC46019300
:1045E00008BD08DF0D4A0010F81F0020000000D0B1
:1045F000FFB550404240504059404B40594000E0C8
:10460000FFB5154F4C00640D03D0BC4204D10C0320
:1046100014D80020090D09055C00640D03D0BC42CC
:1046200004D11C030AD800221B0D1B0501264B4098
:1046300009D44B4003D58B4200D18242FFBD994241
:10464000FCD19042FFBD0B43DB1803431343F5D06D
:10465000C9434918FFBD0000FF07000000B5FFF780
:10466000CFFF01D0002000BD012000BD00B5FFF745
:10467000C7FF804100BDC04600B5FFF7C1FF01D9AB
:10468000002000BD012000BD00B5FFF7B1FF01D93A
:10469000002000BD012000BD00B5FFF7A9FF80414B
:1046A00000BD012040054A00121804D85A00121813
:1046B00001D800207047012070470020704700009B
:1046C0000021002805D17047C1174840401AFAD090
:1046D000C90713B5064B1B6898470CBC441CA24085
:1046E0001005120B0349091B09051943114310BD9D
:1046F000883A00201F04000010B54C00620D802392
:10470000D218DB00D21A5B057E2A10DD9E3A13DA3E
:10471000CC170903490819435242D14064000134BF
:104720001532202A05DAD0400843604310BD00202E
:1047300010BD0846604310BDC80FC018013810BD39
:1047400018B4044B5B6AFC46019308BD24DF194D85
:1047500000100000F81F002018B4044BDB6DFC466D
:10476000019308BD5CDF254E00100000F81F0020FB
:10477000C94211D300B549004908002200F018F8D9
:10478000002904D4002240428A41114600BD802104
:104790000906002000BD000018B4044BDB6EFC4687
:1047A000019308BD6CDF274D00100000F81F0020AA
:1047B00018B4044B9B6FFC46019308BD78DF434D52
:1047C00000100000F81F002018B4044BDB6FFC46FB
:1047D000019308BD7CDFB14D00100000F81F0020E0
:1047E000132370B51D78012D15D010DD1C48FFF77F
:1047F0002DFC1C4C01008022200000F049FC022D01
:1048000006D01948FFF71AFC184B186070BD154CFC
:10481000174BA364F5E7164B124C23606360A3604B
:10482000E36023616361A361E36123626362A36266
:10483000E36223636363A363E36323646364A36446
:10484000E36423656365A365E36523666366A36626
:10485000E36623676367A367E367A364D1E7C046A2
:1048600053440000F81F00204C330000883A002019
:104870007548001007B5604601880A0A0230DF2A31
:10488000FAD1C9B2820804D30288408800041043D8
:1048900000E00068014A5050039007BDF81F002057
:1048A0000FB403BC0CBCF0B50124E407634000E086
:1048B000F0B50C0DCF0F661E3605891B640503D3BA
:1048C000C943404200D30131640D03D0661CF60A8F
:1048D00007D0E41B00207F00791C89078912803CE7
:1048E00024031D0DDF0F6E1E36059B1B6D0503D3C4
:1048F000DB43524200D301336D0D03D06E1CF60A28
:1049000007D0ED1B00227F007B1C9B079B12803D84
:104910002D032F1B661B58D4A446202E46DA2037C1
:104920001400BC401D00BD40F24033412A438018B2
:104930005941CB0F05D0C943C043002264425041C6
:10494000514162464D0D28D10D0D07D100281FD0D1
:10495000241940414941013A0D0DF9D0640006D3B4
:10496000013000D30131002C01D140084000013A50
:104970000BD4941CE40A04D112051144DB0719443A
:10498000F0BDD907204B194300E0D9070020F0BD46
:104990000029DDD1002CDBD1F0BD0132C607400873
:1049A000CD0728434908002EE1D0D9E73C2E29DA6B
:1049B000203E40371400BC4000D00124F240144394
:1049C0001A00BB401C43D317ACE7AC46202F08DAD3
:1049D00020360400B4400D00B540F840394128436A
:1049E000A5E73C2F0CDA203F40360400B44000D04D
:1049F0000124F84004430800B1400C43C117EAE722
:104A000010001900002494E70000F07FF0B50C0DB1
:104A1000661E3605891BE60A6405640D02D0651C16
:104A2000ED0A04D0002001210905803C2403A4469E
:104A30001C0D671E3F05DB1BE70A6405640D02D0F1
:104A4000651CED0A04D0002201231B05803C2403D1
:104A50007740644497B484B296B27443070C7E43A3
:104A6000150C6F4380B26843361802D3012000044E
:104A70003F183004350C00197D41844688B29AB243
:104A800050430C0C62431F0C7C438EB27E43921940
:104A900002D301263604A4191604170C36186741F0
:104AA00001BC81B29AB25143040C62431B0C5C43BB
:104AB00080B25843121802D30120000424181004B5
:104AC000130C401863412D185E410020474106BC7D
:104AD00088B293B258430C0C6343120C544389B20E
:104AE00051435B1802D301210904641819041A0CFC
:104AF000091862416D1856410020474118BCF9025F
:104B0000720D1143F0026A0D1043ED020A0D03D13C
:104B10006D1940414941013B124E9B1B7600B34247
:104B20000ED26D0007D30130002671416646354331
:104B300001D1400840001B05C918E4072144F0BD1D
:104B40000BDA013306D1013004D101314F0D01D010
:104B50004908F2E7E1070020F0BD013631050020E9
:104B6000EBE70000FF030000F0B51C0D671E3F05DA
:104B7000DB1BE70A6405640D02D0661CF60A04D04C
:104B8000002201231B05803C2403D0252D0600268E
:104B9000F6432E661E096E66CE0FF619B44649001E
:104BA0004F0D02D07E1CF60A03D000200021403FAA
:104BB0003F033E1BB600B444013F7F05C91B4908B3
:104BC0002E6F013676089C02950D25437543ED1333
:104BD0007543AD1301356D10F603761B0CB4CC0292
:104BE000450D2C43A2B2B3B25A43270C7B43350C7C
:104BF0006F43A4B26C431B1902D3012424043F1950
:104C00001C041D0CA4187D4124196D41009A91B219
:104C1000ACB26143170C7C432B0C5F4392B25A43F6
:104C2000A41802D301221204BF182204230C521824
:104C30007B41019C6C431B19520ED9010A4344016C
:104C4000A01A81B2B2B2514303145A43360C7343D3
:104C500087B27743D617D21900277E4136049B19B5
:104C60001704160C7F185E417316ED18F301002629
:104C700080337541A90F06D16400690AE8055B0A13
:104C8000184309D22FE00422944480337541A90AC5
:104C9000A8059B0A184326D3404149412404009AA1
:104CA000019B0D005543641B4343E41A95B286B241
:104CB0007543170C7E43030C5F4392B25A43B618F8
:104CC00002D301221204BF183204330C52197B4163
:104CD00052429C41002C02D4002201305141400834
:104CE000CA071043490802B06246D7079210084B22
:104CF000D218084B9A4203D212058918C919F0BD7F
:104D00000020002A01DC3900F0BD01331905F5E768
:104D1000FD030000FE070000002200B5203200F075
:104D200010F8080000BD002200B500F00CF8CA170A
:104D30009A4200D100BDD8430121C907414000BDBE
:104D400000220B150AD410B5944600F0A7F81414ED
:104D5000013400DA0021CB17144C20470020002139
:104D600070476244343A0CD40C2A07DA04009140AC
:104D7000904052422032D440214310BDD843D94301
:104D800010BD203207D40C469440524220321141CB
:104D9000D040204310BD0800C917203203D452422E
:104DA0002032104110BD1800190010BD634D0010D5
:104DB0004A00520D144BD21A13DDFF2A1EDAD20517
:104DC000CB0FDB071A43C300400F0903490A08430E
:104DD00010435B0001D301D0013070474308FBD280
:104DE000704702D0C80FC00770470A031213013280
:104DF000F8D1420F072AF5D1012200E0FF22C80FA7
:104E000000028018C00570478003000000210A00DE
:104E1000002104E000210A00C11704E00022002361
:104E200006E0C0460022CB1758405940C01A9941AD
:104E300030B5184CA21A002903D1010010D000206F
:104E4000203A4C1512D104D2013A001849414C0DB8
:104E5000FAD3114CA24204D212058918DB07C918F3
:104E600030BDD243520D00200021F5E703D4013AB2
:104E700000184941FBD50B324405C00A4D052843B3
:104E8000C90A640003D0002460416141E1E7E0D336
:104E90004408F8E732040000FE0700000A0DCC0FBA
:104EA000531E1B05C91A520503D3C943404200D300
:104EB0000131520D03D0531CDB0A07D0121B002016
:104EC0006400611C89078912803A1203014BD21ACF
:104ED00070470000FF03000051434343C9188C464C
:104EE000110C83B24B4310B4040C614392B280B2F4
:104EF000504362431C041B0C001910BC594113049D
:104F0000120CC018514161447047000007B5484079
:104F10004140484001E0C04607B54200120E03D0B0
:104F2000FF2A03D1420218D8C00DC0054A00120E54
:104F300003D0FF2A03D14A020FD8C90DC9050122A7
:104F4000414005D4414001D5814207BD884207BD9B
:104F50000143491801D0C043001807BD00B5FFF751
:104F6000DBFF01D0002000BD012000BD00B5FFF730
:104F7000D3FF01D9002000BD012000BD01231B0685
:104F80004200D21804D84A00D21801D80020704735
:104F900001207047132310B512481C78FFF756F80C
:104FA0000100012C0AD003DD80220F4800F070F8C8
:104FB0000E48FFF743F80E4B186010BD0A4C542200
:104FC000200000F065F80B4B6365A365E36523667D
:104FD0006366A366E36623676367A367E367236289
:104FE000E361E5E753460000F82000204C33000061
:104FF000883A0020F94F001007B5604601880A0A78
:105000000230DF2AFAD1C9B2820804D3028840886C
:105010000004104300E00068014A5050039007BDAF
:10502000F820002010B5040033F060FD002804D003
:10503000034B04199C4200D810BD0248FDF7F0FA5A
:1050400000000420B863041010B50C0034F014F90B
:10505000002804D0034B04199C4200D810BD02481C
:10506000FDF7DEFA00000420B863041010B533F039
:1050700047FD10BD01480421014B184700140020D2
:105080005D400010014B1B68184700000014002011
:10509000014B5B68184700000014002010B5FFF7B3
:1050A000C1FF10BD10B5FFF7BDFF10BD10B5FFF774
:1050B000DDFF10BD10B5FFF7D9FF10BD10B5FFF72C
:1050C000D5FF10BD030010B5080011001B689847FC
:1050D00010BDC046F0B546464F46D646C0B5437CE7
:1050E00080460E001700002B46D0002A3FDD4B1EE5
:1050F0009946244B0125002400209A460DE04B469A
:105100001B5D0D3B5A425341325DDBB20A2A0BD084
:105110002B00013401359F421ADD002CEFD14346AC
:10512000325D1B7C0A2AF3D1002BF1D1A04204DAB4
:105130004346211A1B6830189847434650461B685F
:1051400002219847013428002B0001359F42E4DCFE
:10515000874204DD4346391A1B6830189847F61910
:10516000013E33780D3B5A42534142461374E0BC32
:10517000BA46B146A846F0BD036811003000984712
:10518000F5E7C0462C640410F0B557464E46454638
:10519000DE461C00D023E0B51B061F68344B83B0ED
:1051A00006000D00180001A991469A4640F004FF40
:1051B0008046002808D1019B7FB29F4204D0504610
:1051C00040F02AFF012398466B1C03D1300035F0D4
:1051D00045FB0500002C27D1264F274B1C68002CCF
:1051E00018D04B46002B21D1244B994602E0E468AD
:1051F000002C0FD02368002BF9D04B461B68002BE6
:1052000001D0A342F3D120002A003100B847E4685E
:10521000002CEFD14346002B25D103B0F0BCBB4698
:10522000B246A946A046F0BD154FD6E7134B9946A6
:105230000A239B4602E0E468002CEBD02368002B95
:10524000F9D04B461B68002B01D0A342F3D12A00B2
:1052500031002000B8475A466B4620001A7101A958
:105260000122B847E7E7504640F056FED5E7C04672
:10527000B81E0020D5500010543A00205C3A00209F
:10528000C5500010F0B5CE46474680B583B06B469A
:10529000DE1CD02330701B061C681F4B804601A902
:1052A0001800994640F088FE071E20D01B4B1C6852
:1052B000002C28D01A4D02E0E468002C0FD023689F
:1052C000002BF9D02B68002B01D0A342F4D1200091
:1052D00001223100FFF7FEFEE468002CEFD1002F21
:1052E00011D1404603B0C0BCB946B046F0BD019BE9
:1052F00064B29C420BD0484640F08EFE074B01271B
:105300001C68002CD6D1484640F006FEE9E7034B66
:105310001C68002CCED1E4E7B81E0020543A0020CF
:105320005C3A002070B5040035F098FA00230100C3
:10533000050001222000FFF727FF084B1C68002C06
:1053400006D06368002B05D09847E468002CF8D19C
:10535000280070BDE468002CF3D1F9E7543A00202E
:10536000F0B54746D64680B516000F0083B000283A
:105370002DD11C4B1C4D1A685B68019200931B4B8E
:105380009A461B4B984653461C68002C03D114E0E8
:10539000E468002C11D02B68002B01D0A342F7D178
:1053A000A368002BF4D03100380098470028EFDDC7
:1053B00003B0C0BCBA46B046F0BD434600995B6A34
:1053C000994209D842460198926A824202D301204A
:1053D0004042EDE79942FAD101200021FCF714FD8B
:1053E000D1E7C046E86004105C3A0020543A00203F
:1053F00000400540F0B54F46D6464646C0B5013898
:105400000D00170082B0012842D8D0231B061C686B
:10541000214B01A918009A4640F0CEFD8146002894
:1054200008D1019B64B29C4204D0504640F0F4FD88
:1054300001239946B8467B1C03D1280035F00EFAAB
:105440008046164B1C68002C14D0154E02E0E46810
:10545000002C0FD02368002BF9D03368002B01D02B
:10546000A342F4D1200042462900FFF733FEE4684E
:10547000002CEFD14B46002B06D1380002B0E0BC27
:10548000BA46B146A846F0BD504640F045FDF4E7A7
:1054900001277F42F1E7C046B81E0020543A0020A1
:1054A0005C3A002010B5024800F004F810BDC04678
:1054B000803A002030B5002589B00400092200217F
:1054C00001A80095FFF7DEFD0922002105A804953B
:1054D000FFF7D8FD4B236A466846137004A90D22D6
:1054E00040F012FD1521082220006944FFF7D0FD8D
:1054F00009B030BDF0B5DE4657464E46454601225E
:10550000E0B5DF4F00243800DE4B83B01A70DE4B6D
:105510007C6098461B681C309D68DC4BBC603B601F
:10552000FC603C617C61BC619B4601F0B7F8D84BE4
:10553000D84E9A463B6001235B4299467B624346C4
:105540001B683D625D6830005B4674603360B46028
:10555000F46034617461B4611C3001F09FF853460B
:1055600033604B46736243463562CB4D5A46280042
:105570001B682A60DB686C60AC60EC602C616C615D
:10558000AC611C30019301F089F8019B52462B62FB
:105590004B466B62C14B2A609946180012F030FEF0
:1055A0004B4678221C67043B9C5208329C500432C4
:1055B0009C5004329C50DC67B94C390022001432F4
:1055C00048461C605A6012F0BDFDB64F380012F01C
:1055D00017FE3B0000227C21083B5A5204315A50EE
:1055E00004315A5004315A5004315A50AE493800EF
:1055F0001960143199603A6731005A6012F0A2FDC7
:10560000AA4E300012F0FCFD00227821331F5A52BE
:1056100008315A5004315A5004315A503267B26737
:1056200022001432290030001C60326012F08AFD22
:105630009F4E300012F0E4FD00227821331F5A52B1
:1056400008315A5004315A501C60043114345A50F5
:10565000300029003267B267346012F073FD802297
:105660009449954B92019967944B954F18695967E6
:1056700002431A614346002438001B687C609D6821
:10568000904BBC603B60FC603C617C61BC611C3049
:105690009B4601F003F88C4B8C4E9A463B600123ED
:1056A0005B4299467B6243461B683D625D68300001
:1056B0005B4674603360B460F46034617461B461FB
:1056C0001C3000F0EBFF534633604B467362434699
:1056D0001B683562DB687E4D984628005B466C602F
:1056E0002B60AC60EC602C616C61AC611C3000F034
:1056F000D5FF53462B6043462B624B466B62754B7E
:105700009846180012F07CFD43467C221C675C67BB
:10571000043B9C5404329C5004329C5004329C50F4
:1057200004329C506C4C39002200143240461C60FC
:105730005A6012F04FFD694F380012F061FD3B00D6
:1057400000228021083B5A5404315A5004315A50E7
:1057500004315A5004315A506149380019601431EB
:1057600099603A6731007A675A6012F033FD5D4EF6
:10577000300012F045FD00227C21331F5A540431C1
:105780005A5004315A5004315A5004315A50326739
:10579000726722001432290030001C60326012F05F
:1057A00019FD514E300012F02BFD00227C21331FD9
:1057B0005A5404315A5004315A5004315A501C6022
:1057C000043114345A503000290032677267346053
:1057D00012F000FD80224549454B92019967454BE7
:1057E0001869596702431A61434A13680133136009
:1057F00003B0F0BCBB46B246A946A046F0BD2D4B57
:105800003E4A48465A6012F039FD28F081FA3C4B76
:105810003C4A30005A6012F031FD28F079FA354BDD
:10582000384A30005A6012F029FD28F071FA304BE6
:10583000344A38009A6012F021FD28F069FA2B4BA7
:10584000304A40465A6012F019FD28F061FA2E4B9A
:105850002A4A30005A6012F011FD28F059FA174B0D
:10586000264A30005A6012F009FD28F051FA124B16
:10587000224A38009A6012F001FD28F049FAC04629
:10588000B031002010140020A4140020EC92041069
:10589000948604106031002088310020A03500205B
:1058A00008900410FC330020848804108834002001
:1058B000143500209C350020F4330020843400206F
:1058C000283200202C930410D4860410D8310020F4
:1058D00000320020E03700203890041030360020DD
:1058E000B4880410C036002050370020DC37002078
:1058F00028360020BC360020C0330020B0870410BA
:105900004C370020C087041010350020064A10B51F
:1059100013680400591C1160002B01D0200010BD39
:10592000FFF7E8FDFAE7C046C03300207047C046E5
:1059300010B50400FFF7BAFB200010BD044A0B6845
:1059400012680360934202D01A6801321A607047ED
:10595000403300200160704710B5064C20680028D5
:1059600000D010BD20000022034929F0DBFD206893
:10597000F7E7C04648330020306404100048704701
:1059800030640410416870B50500002916D08368A2
:10599000002B10D00024354EA2005058002805D00E
:1059A00043685A1E4260012B36D0AB680134A342D3
:1059B000F2D8002902D00800FFF77CFBE968002933
:1059C00016D0AB68002B10D00024284EA2005058EF
:1059D000002805D043685A1E4260012B24D0AB68D2
:1059E0000134A342F2D8002902D00800FFF762FB7D
:1059F0002B690024002B0DD01859002802D0FFF786
:105A000059FB2B690434182CF6D1002B02D0180056
:105A1000FFF750FB280070BD03685B68B3420BD1F1
:105A2000FFF744FB6968C0E703685B68B34206D1CF
:105A3000FFF73CFBE968D2E798476968B5E7984704
:105A4000E968CCE728F000FB28F038FB6968ACE790
:105A500028F0FAFA28F032FBE968C0E74B1C02D1C3
:105A600028F072FAFAE728F053F9C04631590010CD
:105A70000A4B70B51B68056804009D4204D02B6872
:105A80005A1E2A60012B01D0200070BD2800FFF7AC
:105A900079FF2800FFF70AFBF6E7C04640330020F5
:105AA0000E4A0B68126870B504000D00934202D0D4
:105AB0001968013119602668B24204D03268511E5B
:105AC0003160012A02D02000236070BD3000FFF752
:105AD00059FF3000FFF7EAFA2B68F4E74033002063
